{
  "_format": "hh-sol-artifact-1",
  "contractName": "Complain",
  "sourceName": "contracts/Complain.sol",
  "abi": [
    {
      "inputs": [],
      "stateMutability": "nonpayable",
      "type": "constructor"
    },
    {
      "inputs": [
        {
          "internalType": "string",
          "name": "name",
          "type": "string"
        },
        {
          "internalType": "string",
          "name": "party",
          "type": "string"
        },
        {
          "internalType": "string",
          "name": "imageUri",
          "type": "string"
        }
      ],
      "name": "addCandidate",
      "outputs": [],
      "stateMutability": "nonpayable",
      "type": "function"
    },
    {
      "inputs": [],
      "name": "candidateCount",
      "outputs": [
        {
          "internalType": "uint8",
          "name": "",
          "type": "uint8"
        }
      ],
      "stateMutability": "view",
      "type": "function"
    },
    {
      "inputs": [
        {
          "internalType": "uint8",
          "name": "",
          "type": "uint8"
        }
      ],
      "name": "candidates",
      "outputs": [
        {
          "internalType": "string",
          "name": "name",
          "type": "string"
        },
        {
          "internalType": "string",
          "name": "party",
          "type": "string"
        },
        {
          "internalType": "string",
          "name": "imageUri",
          "type": "string"
        }
      ],
      "stateMutability": "view",
      "type": "function"
    },
    {
      "inputs": [
        {
          "internalType": "address",
          "name": "voter",
          "type": "address"
        }
      ],
      "name": "giveRightToVote",
      "outputs": [],
      "stateMutability": "nonpayable",
      "type": "function"
    },
    {
      "inputs": [],
      "name": "owner",
      "outputs": [
        {
          "internalType": "address",
          "name": "",
          "type": "address"
        }
      ],
      "stateMutability": "view",
      "type": "function"
    },
    {
      "inputs": [],
      "name": "totalVotes",
      "outputs": [
        {
          "internalType": "uint256",
          "name": "",
          "type": "uint256"
        }
      ],
      "stateMutability": "view",
      "type": "function"
    },
    {
      "inputs": [
        {
          "internalType": "uint8",
          "name": "id",
          "type": "uint8"
        },
        {
          "internalType": "address",
          "name": "voter",
          "type": "address"
        }
      ],
      "name": "vote",
      "outputs": [],
      "stateMutability": "nonpayable",
      "type": "function"
    },
    {
      "inputs": [
        {
          "internalType": "address",
          "name": "",
          "type": "address"
        }
      ],
      "name": "voters",
      "outputs": [
        {
          "internalType": "address",
          "name": "adr",
          "type": "address"
        },
        {
          "internalType": "bool",
          "name": "voted",
          "type": "bool"
        },
        {
          "internalType": "uint8",
          "name": "weight",
          "type": "uint8"
        }
      ],
      "stateMutability": "view",
      "type": "function"
    },
    {
      "inputs": [
        {
          "internalType": "uint8",
          "name": "",
          "type": "uint8"
        }
      ],
      "name": "votes",
      "outputs": [
        {
          "internalType": "uint256",
          "name": "",
          "type": "uint256"
        }
      ],
      "stateMutability": "view",
      "type": "function"
    }
  ],
  "bytecode": "0x608060405234801561001057600080fd5b50336001806101000a81548173ffffffffffffffffffffffffffffffffffffffff021916908373ffffffffffffffffffffffffffffffffffffffff1602179055506114aa806100606000396000f3fe608060405234801561001057600080fd5b50600436106100935760003560e01c8063a3ec138d11610066578063a3ec138d14610122578063a9a981a314610154578063ad71f8dc14610172578063b81c64531461018e578063c1b43357146101aa57610093565b80630d15fd77146100985780636d6277f4146100b65780638da5cb5b146100e85780639e7b8d6114610106575b600080fd5b6100a06101da565b6040516100ad9190610a94565b60405180910390f35b6100d060048036038101906100cb9190610af2565b6101e0565b6040516100df93929190610baf565b60405180910390f35b6100f06103a2565b6040516100fd9190610c3c565b60405180910390f35b610120600480360381019061011b9190610c83565b6103c6565b005b61013c60048036038101906101379190610c83565b610514565b60405161014b93929190610cda565b60405180910390f35b61015c610578565b6040516101699190610d11565b60405180910390f35b61018c60048036038101906101879190610d91565b61058b565b005b6101a860048036038101906101a39190610e45565b6107b2565b005b6101c460048036038101906101bf9190610af2565b610a63565b6040516101d19190610a94565b60405180910390f35b60035481565b600060205280600052604060002060009150905080600001805461020390610eb4565b80601f016020809104026020016040519081016040528092919081815260200182805461022f90610eb4565b801561027c5780601f106102515761010080835404028352916020019161027c565b820191906000526020600020905b81548152906001019060200180831161025f57829003601f168201915b50505050509080600101805461029190610eb4565b80601f01602080910402602001604051908101604052809291908181526020018280546102bd90610eb4565b801561030a5780601f106102df5761010080835404028352916020019161030a565b820191906000526020600020905b8154815290600101906020018083116102ed57829003601f168201915b50505050509080600201805461031f90610eb4565b80601f016020809104026020016040519081016040528092919081815260200182805461034b90610eb4565b80156103985780601f1061036d57610100808354040283529160200191610398565b820191906000526020600020905b81548152906001019060200180831161037b57829003601f168201915b5050505050905083565b60018054906101000a900473ffffffffffffffffffffffffffffffffffffffff1681565b600460008273ffffffffffffffffffffffffffffffffffffffff1673ffffffffffffffffffffffffffffffffffffffff16815260200190815260200160002060000160149054906101000a900460ff1615610456576040517f08c379a000000000000000000000000000000000000000000000000000000000815260040161044d90610f31565b60405180910390fd5b6000600460008373ffffffffffffffffffffffffffffffffffffffff1673ffffffffffffffffffffffffffffffffffffffff16815260200190815260200160002060000160159054906101000a900460ff1660ff16146104b557600080fd5b6001600460008373ffffffffffffffffffffffffffffffffffffffff1673ffffffffffffffffffffffffffffffffffffffff16815260200190815260200160002060000160156101000a81548160ff021916908360ff16021790555050565b60046020528060005260406000206000915090508060000160009054906101000a900473ffffffffffffffffffffffffffffffffffffffff16908060000160149054906101000a900460ff16908060000160159054906101000a900460ff16905083565b600160009054906101000a900460ff1681565b3373ffffffffffffffffffffffffffffffffffffffff1660018054906101000a900473ffffffffffffffffffffffffffffffffffffffff1673ffffffffffffffffffffffffffffffffffffffff1614610619576040517f08c379a000000000000000000000000000000000000000000000000000000000815260040161061090610f9d565b60405180910390fd5b6001600081819054906101000a900460ff168092919061063890610fec565b91906101000a81548160ff021916908360ff160217905550506000604051806060016040528088888080601f016020809104026020016040519081016040528093929190818152602001838380828437600081840152601f19601f82011690508083019250505050505050815260200186868080601f016020809104026020016040519081016040528093929190818152602001838380828437600081840152601f19601f82011690508083019250505050505050815260200184848080601f016020809104026020016040519081016040528093929190818152602001838380828437600081840152601f19601f82011690508083019250505050505050815250905080600080600160009054906101000a900460ff1660ff1660ff168152602001908152602001600020600082015181600001908161077991906111f0565b50602082015181600101908161078f91906111f0565b5060408201518160020190816107a591906111f0565b5090505050505050505050565b73f39fd6e51aad88f6f4ce6ab8827279cfffb9226673ffffffffffffffffffffffffffffffffffffffff168173ffffffffffffffffffffffffffffffffffffffff161461091f576000600460008373ffffffffffffffffffffffffffffffffffffffff1673ffffffffffffffffffffffffffffffffffffffff16815260200190815260200160002060000160159054906101000a900460ff1660ff161161088e576040517f08c379a000000000000000000000000000000000000000000000000000000000815260040161088590611334565b60405180910390fd5b600460008273ffffffffffffffffffffffffffffffffffffffff1673ffffffffffffffffffffffffffffffffffffffff16815260200190815260200160002060000160149054906101000a900460ff161561091e576040517f08c379a0000000000000000000000000000000000000000000000000000000008152600401610915906113a0565b60405180910390fd5b5b60008260ff1611610965576040517f08c379a000000000000000000000000000000000000000000000000000000000815260040161095c9061140c565b60405180910390fd5b600160009054906101000a900460ff1660ff168260ff1611156109bd576040517f08c379a00000000000000000000000000000000000000000000000000000000081526004016109b49061140c565b60405180910390fd5b600260008360ff1660ff16815260200190815260200160002060008154809291906109e79061142c565b9190505550600360008154809291906109ff9061142c565b91905055506001600460008373ffffffffffffffffffffffffffffffffffffffff1673ffffffffffffffffffffffffffffffffffffffff16815260200190815260200160002060000160146101000a81548160ff0219169083151502179055505050565b60026020528060005260406000206000915090505481565b6000819050919050565b610a8e81610a7b565b82525050565b6000602082019050610aa96000830184610a85565b92915050565b600080fd5b600080fd5b600060ff82169050919050565b610acf81610ab9565b8114610ada57600080fd5b50565b600081359050610aec81610ac6565b92915050565b600060208284031215610b0857610b07610aaf565b5b6000610b1684828501610add565b91505092915050565b600081519050919050565b600082825260208201905092915050565b60005b83811015610b59578082015181840152602081019050610b3e565b60008484015250505050565b6000601f19601f8301169050919050565b6000610b8182610b1f565b610b8b8185610b2a565b9350610b9b818560208601610b3b565b610ba481610b65565b840191505092915050565b60006060820190508181036000830152610bc98186610b76565b90508181036020830152610bdd8185610b76565b90508181036040830152610bf18184610b76565b9050949350505050565b600073ffffffffffffffffffffffffffffffffffffffff82169050919050565b6000610c2682610bfb565b9050919050565b610c3681610c1b565b82525050565b6000602082019050610c516000830184610c2d565b92915050565b610c6081610c1b565b8114610c6b57600080fd5b50565b600081359050610c7d81610c57565b92915050565b600060208284031215610c9957610c98610aaf565b5b6000610ca784828501610c6e565b91505092915050565b60008115159050919050565b610cc581610cb0565b82525050565b610cd481610ab9565b82525050565b6000606082019050610cef6000830186610c2d565b610cfc6020830185610cbc565b610d096040830184610ccb565b949350505050565b6000602082019050610d266000830184610ccb565b92915050565b600080fd5b600080fd5b600080fd5b60008083601f840112610d5157610d50610d2c565b5b8235905067ffffffffffffffff811115610d6e57610d6d610d31565b5b602083019150836001820283011115610d8a57610d89610d36565b5b9250929050565b60008060008060008060608789031215610dae57610dad610aaf565b5b600087013567ffffffffffffffff811115610dcc57610dcb610ab4565b5b610dd889828a01610d3b565b9650965050602087013567ffffffffffffffff811115610dfb57610dfa610ab4565b5b610e0789828a01610d3b565b9450945050604087013567ffffffffffffffff811115610e2a57610e29610ab4565b5b610e3689828a01610d3b565b92509250509295509295509295565b60008060408385031215610e5c57610e5b610aaf565b5b6000610e6a85828601610add565b9250506020610e7b85828601610c6e565b9150509250929050565b7f4e487b7100000000000000000000000000000000000000000000000000000000600052602260045260246000fd5b60006002820490506001821680610ecc57607f821691505b602082108103610edf57610ede610e85565b5b50919050565b7f54686520766f74657220616c726561647920766f7465642e0000000000000000600082015250565b6000610f1b601883610b2a565b9150610f2682610ee5565b602082019050919050565b60006020820190508181036000830152610f4a81610f0e565b9050919050565b7f4e6f7420746865206f776e6572206f662074686520636f6e7472616374000000600082015250565b6000610f87601d83610b2a565b9150610f9282610f51565b602082019050919050565b60006020820190508181036000830152610fb681610f7a565b9050919050565b7f4e487b7100000000000000000000000000000000000000000000000000000000600052601160045260246000fd5b6000610ff782610ab9565b915060ff820361100a57611009610fbd565b5b600182019050919050565b7f4e487b7100000000000000000000000000000000000000000000000000000000600052604160045260246000fd5b60008190508160005260206000209050919050565b60006020601f8301049050919050565b600082821b905092915050565b6000600883026110a67fffffffffffffffffffffffffffffffffffffffffffffffffffffffffffffffff82611069565b6110b08683611069565b95508019841693508086168417925050509392505050565b6000819050919050565b60006110ed6110e86110e384610a7b565b6110c8565b610a7b565b9050919050565b6000819050919050565b611107836110d2565b61111b611113826110f4565b848454611076565b825550505050565b600090565b611130611123565b61113b8184846110fe565b505050565b5b8181101561115f57611154600082611128565b600181019050611141565b5050565b601f8211156111a45761117581611044565b61117e84611059565b8101602085101561118d578190505b6111a161119985611059565b830182611140565b50505b505050565b600082821c905092915050565b60006111c7600019846008026111a9565b1980831691505092915050565b60006111e083836111b6565b9150826002028217905092915050565b6111f982610b1f565b67ffffffffffffffff81111561121257611211611015565b5b61121c8254610eb4565b611227828285611163565b600060209050601f83116001811461125a5760008415611248578287015190505b61125285826111d4565b8655506112ba565b601f19841661126886611044565b60005b828110156112905784890151825560018201915060208501945060208101905061126b565b868310156112ad57848901516112a9601f8916826111b6565b8355505b6001600288020188555050505b505050505050565b7f596f7520646f6e277420686176652074686520726967687420746f20766f746560008201527f2e00000000000000000000000000000000000000000000000000000000000000602082015250565b600061131e602183610b2a565b9150611329826112c2565b604082019050919050565b6000602082019050818103600083015261134d81611311565b9050919050565b7f596f75206861766520616c726561647920766f74656400000000000000000000600082015250565b600061138a601683610b2a565b915061139582611354565b602082019050919050565b600060208201905081810360008301526113b98161137d565b9050919050565b7f43616e64696461746520646f65736e3c74206578697374000000000000000000600082015250565b60006113f6601783610b2a565b9150611401826113c0565b602082019050919050565b60006020820190508181036000830152611425816113e9565b9050919050565b600061143782610a7b565b91507fffffffffffffffffffffffffffffffffffffffffffffffffffffffffffffffff820361146957611468610fbd565b5b60018201905091905056fea26469706673582212206969d9b0bc5ff9536b0d36623ff7658e20598926b8901c2fa4e84a9e2ff4e3d764736f6c63430008130033",
  "linkReferences": {},
  "deployedLinkReferences": {}
}