{
  "_format": "hh-sol-artifact-1",
  "contractName": "Complain",
  "sourceName": "contracts/Complain.sol",
  "abi": [
    {
      "inputs": [],
      "stateMutability": "nonpayable",
      "type": "constructor"
    },
    {
      "inputs": [
        {
          "internalType": "string",
          "name": "name",
          "type": "string"
        },
        {
          "internalType": "string",
          "name": "party",
          "type": "string"
        },
        {
          "internalType": "string",
          "name": "imageUri",
          "type": "string"
        }
      ],
      "name": "addCandidate",
      "outputs": [],
      "stateMutability": "nonpayable",
      "type": "function"
    },
    {
      "inputs": [],
      "name": "candidateCount",
      "outputs": [
        {
          "internalType": "uint256",
          "name": "",
          "type": "uint256"
        }
      ],
      "stateMutability": "view",
      "type": "function"
    },
    {
      "inputs": [
        {
          "internalType": "uint256",
          "name": "",
          "type": "uint256"
        }
      ],
      "name": "candidates",
      "outputs": [
        {
          "internalType": "string",
          "name": "name",
          "type": "string"
        },
        {
          "internalType": "string",
          "name": "party",
          "type": "string"
        },
        {
          "internalType": "string",
          "name": "imageUri",
          "type": "string"
        }
      ],
      "stateMutability": "view",
      "type": "function"
    },
    {
      "inputs": [
        {
          "internalType": "uint8",
          "name": "voter",
          "type": "uint8"
        }
      ],
      "name": "giveRightToVote",
      "outputs": [],
      "stateMutability": "nonpayable",
      "type": "function"
    },
    {
      "inputs": [],
      "name": "owner",
      "outputs": [
        {
          "internalType": "address",
          "name": "",
          "type": "address"
        }
      ],
      "stateMutability": "view",
      "type": "function"
    },
    {
      "inputs": [],
      "name": "totalVotes",
      "outputs": [
        {
          "internalType": "uint256",
          "name": "",
          "type": "uint256"
        }
      ],
      "stateMutability": "view",
      "type": "function"
    },
    {
      "inputs": [
        {
          "internalType": "uint256",
          "name": "id",
          "type": "uint256"
        },
        {
          "internalType": "uint8",
          "name": "voter",
          "type": "uint8"
        }
      ],
      "name": "vote",
      "outputs": [],
      "stateMutability": "nonpayable",
      "type": "function"
    },
    {
      "inputs": [
        {
          "internalType": "uint8",
          "name": "",
          "type": "uint8"
        }
      ],
      "name": "voters",
      "outputs": [
        {
          "internalType": "address",
          "name": "adr",
          "type": "address"
        },
        {
          "internalType": "bool",
          "name": "voted",
          "type": "bool"
        },
        {
          "internalType": "uint256",
          "name": "weight",
          "type": "uint256"
        }
      ],
      "stateMutability": "view",
      "type": "function"
    },
    {
      "inputs": [
        {
          "internalType": "uint256",
          "name": "",
          "type": "uint256"
        }
      ],
      "name": "votes",
      "outputs": [
        {
          "internalType": "uint256",
          "name": "",
          "type": "uint256"
        }
      ],
      "stateMutability": "view",
      "type": "function"
    }
  ],
  "bytecode": "0x608060405234801561001057600080fd5b5033600260006101000a81548173ffffffffffffffffffffffffffffffffffffffff021916908373ffffffffffffffffffffffffffffffffffffffff160217905550611292806100616000396000f3fe608060405234801561001057600080fd5b50600436106100935760003560e01c8063943e821611610066578063943e821614610136578063a9a981a314610152578063ad71f8dc14610170578063cfe00a4e1461018c578063e1859591146101a857610093565b80630d15fd77146100985780633477ee2e146100b65780635df81330146100e85780638da5cb5b14610118575b600080fd5b6100a06101da565b6040516100ad91906108cf565b60405180910390f35b6100d060048036038101906100cb9190610920565b6101e0565b6040516100df939291906109dd565b60405180910390f35b61010260048036038101906100fd9190610920565b6103a2565b60405161010f91906108cf565b60405180910390f35b6101206103ba565b60405161012d9190610a6a565b60405180910390f35b610150600480360381019061014b9190610abe565b6103e0565b005b61015a6105ab565b60405161016791906108cf565b60405180910390f35b61018a60048036038101906101859190610b63565b6105b1565b005b6101a660048036038101906101a19190610c17565b6107a7565b005b6101c260048036038101906101bd9190610c17565b61085f565b6040516101d193929190610c5f565b60405180910390f35b60045481565b600060205280600052604060002060009150905080600001805461020390610cc5565b80601f016020809104026020016040519081016040528092919081815260200182805461022f90610cc5565b801561027c5780601f106102515761010080835404028352916020019161027c565b820191906000526020600020905b81548152906001019060200180831161025f57829003601f168201915b50505050509080600101805461029190610cc5565b80601f01602080910402602001604051908101604052809291908181526020018280546102bd90610cc5565b801561030a5780601f106102df5761010080835404028352916020019161030a565b820191906000526020600020905b8154815290600101906020018083116102ed57829003601f168201915b50505050509080600201805461031f90610cc5565b80601f016020809104026020016040519081016040528092919081815260200182805461034b90610cc5565b80156103985780601f1061036d57610100808354040283529160200191610398565b820191906000526020600020905b81548152906001019060200180831161037b57829003601f168201915b5050505050905083565b60036020528060005260406000206000915090505481565b600260009054906101000a900473ffffffffffffffffffffffffffffffffffffffff1681565b6000600560008360ff1660ff168152602001908152602001600020600101541161043f576040517f08c379a000000000000000000000000000000000000000000000000000000000815260040161043690610d68565b60405180910390fd5b600560008260ff1660ff16815260200190815260200160002060000160149054906101000a900460ff16156104a9576040517f08c379a00000000000000000000000000000000000000000000000000000000081526004016104a090610dd4565b60405180910390fd5b600082116104ec576040517f08c379a00000000000000000000000000000000000000000000000000000000081526004016104e390610e40565b60405180910390fd5b600154821115610531576040517f08c379a000000000000000000000000000000000000000000000000000000000815260040161052890610e40565b60405180910390fd5b60036000838152602001908152602001600020600081548092919061055590610e8f565b91905055506004600081548092919061056d90610e8f565b91905055506001600560008360ff1660ff16815260200190815260200160002060000160146101000a81548160ff0219169083151502179055505050565b60015481565b3373ffffffffffffffffffffffffffffffffffffffff16600260009054906101000a900473ffffffffffffffffffffffffffffffffffffffff1673ffffffffffffffffffffffffffffffffffffffff1614610641576040517f08c379a000000000000000000000000000000000000000000000000000000000815260040161063890610f23565b60405180910390fd5b6001600081548092919061065490610e8f565b91905055506000604051806060016040528088888080601f016020809104026020016040519081016040528093929190818152602001838380828437600081840152601f19601f82011690508083019250505050505050815260200186868080601f016020809104026020016040519081016040528093929190818152602001838380828437600081840152601f19601f82011690508083019250505050505050815260200184848080601f016020809104026020016040519081016040528093929190818152602001838380828437600081840152601f19601f820116905080830192505050505050508152509050806000806001548152602001908152602001600020600082015181600001908161076e919061111e565b506020820151816001019081610784919061111e565b50604082015181600201908161079a919061111e565b5090505050505050505050565b600560008260ff1660ff16815260200190815260200160002060000160149054906101000a900460ff1615610811576040517f08c379a00000000000000000000000000000000000000000000000000000000081526004016108089061123c565b60405180910390fd5b6000600560008360ff1660ff168152602001908152602001600020600101541461083a57600080fd5b6001600560008360ff1660ff1681526020019081526020016000206001018190555050565b60056020528060005260406000206000915090508060000160009054906101000a900473ffffffffffffffffffffffffffffffffffffffff16908060000160149054906101000a900460ff16908060010154905083565b6000819050919050565b6108c9816108b6565b82525050565b60006020820190506108e460008301846108c0565b92915050565b600080fd5b600080fd5b6108fd816108b6565b811461090857600080fd5b50565b60008135905061091a816108f4565b92915050565b600060208284031215610936576109356108ea565b5b60006109448482850161090b565b91505092915050565b600081519050919050565b600082825260208201905092915050565b60005b8381101561098757808201518184015260208101905061096c565b60008484015250505050565b6000601f19601f8301169050919050565b60006109af8261094d565b6109b98185610958565b93506109c9818560208601610969565b6109d281610993565b840191505092915050565b600060608201905081810360008301526109f781866109a4565b90508181036020830152610a0b81856109a4565b90508181036040830152610a1f81846109a4565b9050949350505050565b600073ffffffffffffffffffffffffffffffffffffffff82169050919050565b6000610a5482610a29565b9050919050565b610a6481610a49565b82525050565b6000602082019050610a7f6000830184610a5b565b92915050565b600060ff82169050919050565b610a9b81610a85565b8114610aa657600080fd5b50565b600081359050610ab881610a92565b92915050565b60008060408385031215610ad557610ad46108ea565b5b6000610ae38582860161090b565b9250506020610af485828601610aa9565b9150509250929050565b600080fd5b600080fd5b600080fd5b60008083601f840112610b2357610b22610afe565b5b8235905067ffffffffffffffff811115610b4057610b3f610b03565b5b602083019150836001820283011115610b5c57610b5b610b08565b5b9250929050565b60008060008060008060608789031215610b8057610b7f6108ea565b5b600087013567ffffffffffffffff811115610b9e57610b9d6108ef565b5b610baa89828a01610b0d565b9650965050602087013567ffffffffffffffff811115610bcd57610bcc6108ef565b5b610bd989828a01610b0d565b9450945050604087013567ffffffffffffffff811115610bfc57610bfb6108ef565b5b610c0889828a01610b0d565b92509250509295509295509295565b600060208284031215610c2d57610c2c6108ea565b5b6000610c3b84828501610aa9565b91505092915050565b60008115159050919050565b610c5981610c44565b82525050565b6000606082019050610c746000830186610a5b565b610c816020830185610c50565b610c8e60408301846108c0565b949350505050565b7f4e487b7100000000000000000000000000000000000000000000000000000000600052602260045260246000fd5b60006002820490506001821680610cdd57607f821691505b602082108103610cf057610cef610c96565b5b50919050565b7f596f7520646f6e277420686176652074686520726967687420746f20766f746560008201527f2e00000000000000000000000000000000000000000000000000000000000000602082015250565b6000610d52602183610958565b9150610d5d82610cf6565b604082019050919050565b60006020820190508181036000830152610d8181610d45565b9050919050565b7f596f75206861766520616c726561647920766f74656400000000000000000000600082015250565b6000610dbe601683610958565b9150610dc982610d88565b602082019050919050565b60006020820190508181036000830152610ded81610db1565b9050919050565b7f43616e64696461746520646f65736e3c74206578697374000000000000000000600082015250565b6000610e2a601783610958565b9150610e3582610df4565b602082019050919050565b60006020820190508181036000830152610e5981610e1d565b9050919050565b7f4e487b7100000000000000000000000000000000000000000000000000000000600052601160045260246000fd5b6000610e9a826108b6565b91507fffffffffffffffffffffffffffffffffffffffffffffffffffffffffffffffff8203610ecc57610ecb610e60565b5b600182019050919050565b7f4e6f7420746865206f776e6572206f662074686520636f6e7472616374000000600082015250565b6000610f0d601d83610958565b9150610f1882610ed7565b602082019050919050565b60006020820190508181036000830152610f3c81610f00565b9050919050565b7f4e487b7100000000000000000000000000000000000000000000000000000000600052604160045260246000fd5b60008190508160005260206000209050919050565b60006020601f8301049050919050565b600082821b905092915050565b600060088302610fd47fffffffffffffffffffffffffffffffffffffffffffffffffffffffffffffffff82610f97565b610fde8683610f97565b95508019841693508086168417925050509392505050565b6000819050919050565b600061101b611016611011846108b6565b610ff6565b6108b6565b9050919050565b6000819050919050565b61103583611000565b61104961104182611022565b848454610fa4565b825550505050565b600090565b61105e611051565b61106981848461102c565b505050565b5b8181101561108d57611082600082611056565b60018101905061106f565b5050565b601f8211156110d2576110a381610f72565b6110ac84610f87565b810160208510156110bb578190505b6110cf6110c785610f87565b83018261106e565b50505b505050565b600082821c905092915050565b60006110f5600019846008026110d7565b1980831691505092915050565b600061110e83836110e4565b9150826002028217905092915050565b6111278261094d565b67ffffffffffffffff8111156111405761113f610f43565b5b61114a8254610cc5565b611155828285611091565b600060209050601f8311600181146111885760008415611176578287015190505b6111808582611102565b8655506111e8565b601f19841661119686610f72565b60005b828110156111be57848901518255600182019150602085019450602081019050611199565b868310156111db57848901516111d7601f8916826110e4565b8355505b6001600288020188555050505b505050505050565b7f54686520766f74657220616c726561647920766f7465642e0000000000000000600082015250565b6000611226601883610958565b9150611231826111f0565b602082019050919050565b6000602082019050818103600083015261125581611219565b905091905056fea264697066735822122087bc40cb6ee32fe525caacf764616fba274493e56c943cde5b7eaa5ca65a6d0d64736f6c63430008130033",
  "linkReferences": {},
  "deployedLinkReferences": {}
}